:100000000C945D000C943C020C943C020C943C0259
:100010000C943C020C943C020C943C020C943C0268
:100020000C943C020C943C020C943C020C943C0258
:100030000C943C020C943C020C943C020C943C0248
:100040000C943C020C943C020C94CD000C943C02A9
:100050000C943D010C943C020C943C020C943C0228
:100060000C943C020C943C020C943C020C943C0218
:100070000C9405010C943C020C9462010C943C021B
:100080000C943C020C943C020C943C020C943C02F8
:100090000C943C020C943C020C943C020C943C02E8
:1000A0000C943C020C943C020C943C020C943C02D8
:1000B0000C943C0201000360800011241FBECFEFAE
:1000C000D8E0DEBFCDBFE4EBF0E040E017C0B59173
:1000D000A59135912591059107FD0CC095918591CC
:1000E000EF01F92FE82F05900D92A217B307D9F76A
:1000F000FE0104C01D92A217B307E1F7E93BF40724
:0E01000031F70E9439020C948500F894FFCF6D
:10010E0025303278000D0A0073797320736C6565A3
:10011E007000257320256C64002573202573006DF7
:10012E0061632073657420646576657569006D6121
:10013E00632073657420617070657569006D61630D
:10014E0020736574206170706B6579006D6163203A
:10015E0073657420616472206F6666006D61632042
:10016E0073657420616472206F6E006D616320741C
:0F017E007820636E6600257320256420257300AA
:0C018D007379732067657420766572003A
:10019A001F920F920FB60F9211242F938F939F9352
:1001AA00EF93FF938091580381110EC0E091590398
:1001BA00E43650F481E08E0F80935903F0E0809189
:1001CA00C600E050FF4F80838091590390E0FC0104
:1001DA00E150FF4F20812D3049F4FC01E250FF4FDE
:1001EA0080818A3019F481E080935803FF91EF915E
:1001FA009F918F912F910F900FBE0F901F9018957E
:10020A001F920F920FB60F9211242F938F939F93E1
:10021A00EF93FF9380915C0381110EC0E0915D031F
:10022A00E43650F481E08E0F80935D03F0E0809114
:10023A00CE00EC50FD4F808380915D0390E0FC017D
:10024A00ED50FD4F20812D3049F4FC01EE50FD4F59
:10025A0080818A3019F481E080935C03FF91EF91E9
:10026A009F918F912F910F900FBE0F901F9018950D
:10027A001F920F920FB60F9211248F93EF93FF9351
:10028A00E0915A0380915B03E81758F481E08E0FDE
:10029A0080935A03F0E0EC59FE4F80818093C600A8
:1002AA0004C010925A0310925B03FF91EF918F9151
:0A02BA000F900FBE0F901F901895D3
:1002C4001F920F920FB60F9211248F93EF93FF9307
:1002D400E0915E0380915F03E81758F481E08E0F8C
:1002E40080935E03F0E0E45DFD4F80818093CE0057
:1002F40004C010925E0310925F03FF91EF918F91FF
:0A0304000F900FBE0F901F90189588
:10030E00CF93DF93CDB7DEB7C85CD1090FB6F894A3
:10031E00DEBF0FBECDBF0E94AA014DE851E060E0E6
:10032E00CE0101960E94E201682FCE0101960E9435
:10033E00C8012FEF89E698E1215080409040E1F707
:06034E0000C00000EACF30
:10035400E1ECF0E08081806180838081886080832B
:10036400808180688083808180648083E0ECF0E019
:1003740080818260808386E08093C20080E190E087
:0C0384009093C5008093C4007894089505
:10039000DC0190E00BC0292F30E0FD01E20FF31FDC
:1003A0004081F901EC59FE4F40839F5F961798F307
:1003B00060935B0381E080935A0380916401809392
:0403C000C6000895D6
:1003C400CF93DF93EC010E942A02FE0101900020EA
:1003D400E9F7CF0123E030E043E151E060E0019729
:1003E4000E94FB01BE0180E80E941402DF91CF91BC
:0203F40008956A
:1003F600CF92DF92EF92DC016A01E62E280F391FB9
:10040600A217B30751F0F6014491E7FC40814D93E2
:100416004FEFC41AD40AE40AF3CFEF90DF90CF90DF
:02042600089537
:10042800CF92DF92EF926B01E82EA82FCB01FC014F
:100438002491A7FD2081222319F00196A11DF7CF51
:0C0448008C199D09EF90DF90CF90089573
:100454009A01462FDC01F901549147FD50815D93C7
:0E046400552321F02F5F3F4F4F4FF5CF0895E6
:060472000E948701FFCF8C
:040478000C940000E0
:00000001FF
