:100000000C945D000C94E0010C94E0010C94E00170
:100010000C94E0010C94E0010C94E0010C94E001DC
:100020000C94E0010C94E0010C94E0010C94E001CC
:100030000C94E0010C94E0010C94E0010C94E001BC
:100040000C94E0010C94E0010C94CE000C94E001BF
:100050000C9406010C94E0010C94E0010C94E00176
:100060000C94E0010C94E0010C94E0010C94E0018C
:100070000C94E0010C94E0010C94E0010C94E0017C
:100080000C94E0010C94E0010C94E0010C94E0016C
:100090000C94E0010C94E0010C94E0010C94E0015C
:1000A0000C94E0010C94E0010C94E0010C94E0014C
:1000B0000C94E00101000230800011241FBECFEF3C
:1000C000D8E0DEBFCDBFE4EBF0E040E017C0B59173
:1000D000A59135912591059107FD0CC095918591CC
:1000E000EF01F92FE82F05900D92A217B307D9F76A
:1000F000FE0104C01D92A217B307E1F7E93BF40724
:0E01000031F70E94DD010C948500F894FFCFCA
:10010E0025303278000D0A0073797320736C6565A3
:10011E007000257320256C64002573202573006DF7
:10012E0061632073657420646576657569006D6121
:10013E00632073657420617070657569006D61630D
:10014E0020736574206170706B6579006D6163203A
:10015E0073657420616472206F6666006D61632042
:10016E0073657420616472206F6E006D616320741C
:0F017E007820636E6600257320256420257300AA
:0E018D00737973206765742068776575690063
:10019C001F920F920FB60F9211242F938F939F9350
:1001AC00EF93FF9380912C0281110EC0E0912D02F0
:1001BC00E43650F481E08E0F80932D02F0E08091B4
:1001CC00C600E050FF4F808380912D0290E0FC012F
:1001DC00E150FF4F20812D3049F4FC01E250FF4FDC
:1001EC0080818A3019F481E080932C02FF91EF9189
:1001FC009F918F912F910F900FBE0F901F9018957C
:10020C001F920F920FB60F9211248F93EF93FF93BF
:10021C00E0912E0280912F02E81758F481E08E0FA6
:10022C0080932E02F0E0EC59FE4F80818093C60043
:10023C0004C010922E0210922F02FF91EF918F9119
:0A024C000F900FBE0F901F90189541
:10025600CF93DF93CDB7DEB7C85CD1090FB6F8945C
:10026600DEBF0FBECDBF0E944E014DE851E060E0FB
:10027600CE0101960E948601682FCE0101960E944A
:100286006C012FEF89E698E1215080409040E1F71C
:0602960000C00000EACFE9
:10029C00E1ECF0E0808180618083808188608083E4
:1002AC00808180688083808180648083E0ECF0E0D2
:1002BC0080818260808386E08093C20080E190E040
:0C02CC009093C5008093C40078940895BE
:1002D800DC0190E00BC0292F30E0FD01E20FF31F95
:1002E8004081F901EC59FE4F40839F5F961798F3C0
:1002F80060932F0281E080932E02809164018093A5
:04030800C60008958E
:10030C00CF93DF93EC010E94CE01FE0101900020FF
:10031C00E9F7CF0123E030E043E151E060E00197E1
:10032C000E949F01BE0180E80E94B801DF91CF912D
:02033C00089522
:10033E00CF92DF92EF92DC016A01E62E280F391F71
:10034E00A217B30751F0F6014491E7FC40814D939B
:10035E004FEFC41AD40AE40AF3CFEF90DF90CF9098
:02036E000895F0
:10037000CF92DF92EF926B01E82EA82FCB01FC0108
:100380002491A7FD2081222319F00196A11DF7CF0A
:0C0390008C199D09EF90DF90CF9008952C
:10039C009A01462FDC01F901549147FD50815D9380
:0E03AC00552321F02F5F3F4F4F4FF5CF08959F
:0603BA000E942B01FFCFA1
:0403C0000C94000099
:00000001FF
