:100000000C945D000C944A020C9457020C94570215
:100010000C9457020C9457020C9457020C945702FC
:100020000C9457020C9457020C9457020C945702EC
:100030000C9457020C9457020C9457020C945702DC
:100040000C9457020C9457020C94E9000C9457023C
:100050000C9484010C9457020C9457020C94570290
:100060000C9457020C9457020C9457020C945702AC
:100070000C9423010C9457020C94A9010C94570280
:100080000C9457020C9457020C9457020C9457028C
:100090000C9457020C9457020C9457020C9457027C
:1000A0000C9457020C9457020C9457020C9457026C
:1000B0000C94570201000360800011241FBECFEF93
:1000C000D8E0DEBFCDBFE4EBF0E040E017C0B59173
:1000D000A59135912591059107FD0CC095918591CC
:1000E000EF01F92FE82F05900D92A217B307D9F76A
:1000F000FE0104C01D92A217B307E1F7E93BF40724
:0E01000031F70E9454020C948500F894FFCF52
:10010E004265666F726520736C656570004166743A
:0E011E00657220736C65657000496E6974002F
:10012C000F931F93CF93DF93CDB7DEB769970FB6BD
:10013C00F894DEBF0FBECDBF2EE031E040E08DE085
:10014C00F9018E010F5F1F4FD801742F0E943D02E1
:10015C00B80180E80E942702682FC8010E940D0296
:10016C002FEF81EE94E0215080409040E1F700C0E9
:10017C0000000E94CE012BE131E040E08CE0F9015F
:10018C00DE011E96742F0E943D02035F1F4FB801C3
:10019C0080E80E942702682FC8010E940D022FEFF1
:1001AC0081EE94E0215080409040E1F700C00000C7
:1001BC0069960FB6F894DEBF0FBECDBFDF91CF911D
:0601CC001F910F91089540
:1001D2001F920F920FB60F9211242F938F939F931A
:1001E200EF93FF938091580381110EC0E091590360
:1001F200E43650F481E08E0F80935903F0E0809151
:10020200C600E050FF4F808380915903833080F015
:1002120090E0FC01E150FF4F20812A3049F4FC01BB
:10022200E250FF4F80818D3019F481E080935803B2
:10023200FF91EF919F918F912F910F900FBE0F9091
:040242001F9018955C
:100246001F920F920FB60F9211242F938F939F93A5
:10025600EF93FF9380915C0381110EC0E0915D03E3
:10026600E43650F481E08E0F80935D03F0E08091D8
:10027600CE00EC50FD4F808380915D0390E0FC0141
:10028600ED50FD4F20812D3049F4FC01EE50FD4F1D
:1002960080818A3019F481E080935C03FF91EF91AD
:1002A6009F918F912F910F900FBE0F901F901895D1
:1002B600CF93DF9300D000D01F92CDB7DEB70E9458
:1002C600EF0127E231E040E085E0F9018E010F5FA2
:1002D6001F4FD801742F0E943D02B80180E80E948A
:1002E6002702682FC8010E940D022FEF84E39CE0CD
:1002F600215080409040E1F700C000000E94960027
:02030600FDCF29
:100308001F920F920FB60F9211248F93EF93FF93C2
:10031800E0915A0380915B03E81758F481E08E0F4F
:1003280080935A03F0E0EC59FE4F80818093C60019
:1003380004C010925A0310925B03FF91EF918F91C2
:0A0348000F900FBE0F901F90189544
:100352001F920F920FB60F9211248F93EF93FF9378
:10036200E0915E0380915F03E81758F481E08E0FFD
:1003720080935E03F0E0E45DFD4F80818093CE00C8
:1003820004C010925E0310925F03FF91EF918F9170
:0A0392000F900FBE0F901F901895FA
:10039C008AB18B7F8AB98BB184608BB9E9E6F0E0C6
:1003AC0080818E7F80838081826080838DB3816029
:1003BC008DBB83B7817F846083BF83B7816083BF2C
:1003CC007894889583B78E7F83BF8DB38E7F8DBBDA
:0203DC00089582
:1003DE00E1ECF0E0808180618083808188608083A1
:1003EE00808180688083808180648083E0ECF0E08F
:1003FE0080818260808386E08093C20080E190E0FD
:0C040E009093C5008093C400789408957A
:10041A00DC0190E00BC0292F30E0FD01E20FF31F51
:10042A004081F901EC59FE4F40839F5F961798F37C
:10043A0060935B0381E080935A0380916401809307
:04044A00C60008954B
:10044E00CF92DF92EF926B01E82EA82FCB01FC0129
:10045E002491A7FD2081222319F00196A11DF7CF2B
:0C046E008C199D09EF90DF90CF9008954D
:10047A00992777FD05C005900D920197E1F7089538
:0A048A0001900D920197E1F708952B
:100494001F920F920FB60F9211240F900FBE0F9060
:0404A4001F901895F8
:0604A8000E945B01FFCF82
:0404AE000C940000AA
:00000001FF
