:100000000C945D000C947A020C947A020C947A029F
:100010000C947A020C947A020C947A020C947A0270
:100020000C947A020C947A020C947A020C947A0260
:100030000C947A020C947A020C947A020C947A0250
:100040000C947A020C947A020C94C8000C947A02F4
:100050000C943A010C947A020C947A020C947A0271
:100060000C947A020C947A020C947A020C947A0220
:100070000C9402010C947A020C945F010C947A02A5
:100080000C947A020C947A020C947A020C947A0200
:100090000C947A020C947A020C947A020C947A02F0
:1000A0000C947A020C947A020C947A020C947A02E0
:1000B0000C947A0201000428800011241FBECFEFA7
:1000C000D8E0DEBFCDBFE4EBF0E040E017C0B59173
:1000D000A59135912591059107FD0CC095918591CC
:1000E000EF01F92FE82F05900D92A217B307D9F76A
:1000F000FE0104C01D92A217B307E1F7E93BF40724
:0E01000031F70E9471020C948500F894FFCF35
:05010E004641494C00D0
:030113006F6B000F
:10011600CF93DF9300D000D01F92CDB7DEB70E94F9
:10012600740281110BC08FE49BE49A8389831B823E
:1001360063E0CE0101960E94E6011FC0833071F490
:1001460084E592E59A83898389E590E09C838B8395
:1001560064E0CE0101960E94E6010FC02EE031E078
:1001660040E085E0F901DE011196742F0E945402E9
:1001760065E0CE0101960E94E6010F900F900F9068
:0A0186000F900F90DF91CF910895C4
:100190001F920F920FB60F9211242F938F939F935C
:1001A000EF93FF938091200481110EC0E091210410
:1001B000E43650F481E08E0F80932104F0E08091CA
:1001C000C600E050FF4F808380912104833080F08F
:1001D00090E0FC01E150FF4F20812A3049F4FC01FE
:1001E000E250FF4F80818D3019F481E0809320042C
:1001F000FF91EF919F918F912F910F900FBE0F90D4
:040200001F9018959E
:100204001F920F920FB60F9211242F938F939F93E7
:10021400EF93FF938091240481110EC0E091250493
:10022400E43650F481E08E0F80932504F0E0809151
:10023400CE00E454FC4F80838091250490E0FC01BF
:10024400E554FC4F20812D3049F4FC01E654FC4F69
:1002540080818A3019F481E080932404FF91EF9126
:100264009F918F912F910F900FBE0F901F90189513
:100274001F920F920FB60F9211248F93EF93FF9357
:10028400E091220480912304E81758F481E08E0F52
:1002940080932204F0E0EC59FE4F80818093C600E5
:1002A40004C01092220410922304FF91EF918F91C5
:0A02B4000F900FBE0F901F901895D9
:1002BE001F920F920FB60F9211248F93EF93FF930D
:1002CE00E091260480912704E81758F481E08E0F00
:1002DE0080932604F0E0EC50FD4F80818093CE0099
:1002EE0004C01092260410922704FF91EF918F9173
:0A02FE000F900FBE0F901F9018958F
:10030800CF93DF931F92CDB7DEB79AB192609AB9B7
:10031800E1ECF0E09081977F90839BB19D7F9BB942
:10032800A3EFB1E01197F1F700C000009081986049
:100338009083898361E0CE0101960E94E6010F90C7
:06034800DF91CF91089542
:10034E00CF92DF92EF926B01E82EF6018491E7FCDB
:10035E008081F901549147FD508185130BC088238C
:10036E0041F08FEFC81AD80AE80A2F5F3F4F4F4F60
:10037E00ECCF582F90E0851B9109EF90DF90CF9036
:02038E000895D0
:10039000E1ECF0E0808180618083808188608083EF
:1003A000808180688083808180648083E0ECF0E0DD
:1003B00080818260808386E08093C20080E190E04B
:0C03C0009093C5008093C40078940895C9
:1003CC00DC0190E00BC0292F30E0FD01E20FF31FA0
:1003DC004081F901EC59FE4F40839F5F961798F3CB
:1003EC006093230481E080932204809164018093C4
:0403FC00C60008959A
:1004000085E50E9484010E9461028823E1F38CE269
:1004100092E00E9477026CE272E080E823E131E032
:1004200040E00E94A701892B11F480E0089581E04B
:0204300008952D
:10043200BC0190E009C0FB01E90FF11DDA01A050F7
:10044200BF4F2C9120839F5F492F50E020912104C0
:0E04520030E022503109421753076CF3089531
:100460000F931F93CF938C010E941902C091210416
:10047000C250F801EC0FF11D10820E9468028C2F0F
:08048000CF911F910F91089527
:100488000E94C8010E946D020E948B002FEF8DE32D
:1004980099E4215080409040E1F700C00000F4CF7B
:1004A800992777FD05C005900D920197E1F708950A
:0A04B80001900D920197E1F70895FD
:0E04C2009091200481E0911101C080E0089526
:0A04D00010922004109221040895F8
:0804DA0087B1846087B9089521
:0604E2000E944402FFCF5E
:0604E8000E9400020895CD
:0604EE000E943002089597
:0404F4000C94000064
:00000001FF
