:100000000C945D000C94EC010C94F9010C94F90132
:100010000C94F9010C94F9010C94F9010C94F90178
:100020000C94F9010C94F9010C94F9010C94F90168
:100030000C94F9010C94F9010C94F9010C94F90158
:100040000C94F9010C94F9010C94AE000C94F90194
:100050000C9447010C94F9010C94F9010C94F901EA
:100060000C94F9010C94F9010C94F9010C94F90128
:100070000C94E8000C94F9010C946C010C94F901B7
:100080000C94F9010C94F9010C94F9010C94F90108
:100090000C94F9010C94F9010C94F9010C94F901F8
:1000A0000C94F9010C94F9010C94F9010C94F901E8
:1000B0000C94F90101000360800011241FBECFEFF2
:1000C000D8E0DEBFCDBFE4EBF0E040E017C0B59173
:1000D000A59135912591059107FD0CC095918591CC
:1000E000EF01F92FE82F05900D92A217B307D9F76A
:1000F000FE0104C01D92A217B307E1F7E93BF40724
:0E01000031F70E94F6010C948500F894FFCFB1
:10010E00496E697420003030303441333042303023
:10011E004634353437410037304233443537454461
:10012E003030334638343400423838414436443265
:10013E003541334232374336394130314637344315
:0E014E003533463941313739004641494C00BE
:10015C001F920F920FB60F9211242F938F939F9390
:10016C00EF93FF938091580381110EC0E0915903D6
:10017C00E43650F481E08E0F80935903F0E08091C7
:10018C00C600E050FF4F808380915903833080F08C
:10019C0090E0FC01E150FF4F20812A3049F4FC0132
:1001AC00E250FF4F80818D3019F481E08093580329
:1001BC00FF91EF919F918F912F910F900FBE0F9008
:0401CC001F901895D3
:1001D0001F920F920FB60F9211242F938F939F931C
:1001E000EF93FF9380915C0381110EC0E0915D035A
:1001F000E43650F481E08E0F80935D03F0E080914F
:10020000CE00EC50FD4F808380915D0390E0FC01B7
:10021000ED50FD4F20812D3049F4FC01EE50FD4F93
:1002200080818A3019F481E080935C03FF91EF9123
:100230009F918F912F910F900FBE0F901F90189547
:10024000CF93DF9300D000D000D0CDB7DEB70E94AF
:1002500091012EE031E040E086E0F9018E010F5F70
:100260001F4FD801742F0E94DF01B80180E80E945F
:10027000C901682FC8010E94AF012FEF81E19AE701
:0E028000215080409040E1F700C00000F6CF12
:10028E001F920F920FB60F9211248F93EF93FF933D
:10029E00E0915A0380915B03E81758F481E08E0FCA
:1002AE0080935A03F0E0EC59FE4F80818093C60094
:1002BE0004C010925A0310925B03FF91EF918F913D
:0A02CE000F900FBE0F901F901895BF
:1002D8001F920F920FB60F9211248F93EF93FF93F3
:1002E800E0915E0380915F03E81758F481E08E0F78
:1002F80080935E03F0E0E45DFD4F80818093CE0043
:1003080004C010925E0310925F03FF91EF918F91EA
:0A0318000F900FBE0F901F90189574
:10032200E1ECF0E08081806180838081886080835D
:10033200808180688083808180648083E0ECF0E04B
:1003420080818260808386E08093C20080E190E0B9
:0C0352009093C5008093C4007894089537
:10035E00DC0190E00BC0292F30E0FD01E20FF31F0E
:10036E004081F901EC59FE4F40839F5F961798F339
:10037E0060935B0381E080935A03809164018093C4
:04038E00C600089508
:10039200CF92DF92EF926B01E82EA82FCB01FC01E6
:1003A2002491A7FD2081222319F00196A11DF7CFE8
:0C03B2008C199D09EF90DF90CF9008950A
:1003BE00992777FD05C005900D920197E1F70895F5
:0A03CE0001900D920197E1F70895E8
:1003D8001F920F920FB60F9211240F900FBE0F901D
:0403E8001F901895B5
:0603EC000E942001FFCF7A
:0403F2000C94000067
:00000001FF
