:100000000C945D000C94E0030C94E0030C94E0036A
:100010000C94E0030C94E0030C94E0030C94E003D4
:100020000C94E0030C94E0030C94E0030C94E003C4
:100030000C94E0030C94E0030C94E0030C94E003B4
:100040000C94E0030C94E0030C944B010C94E0033B
:100050000C9454020C94E0030C94E0030C94E00321
:100060000C94E0030C94E0030C94E0030C94E00384
:100070000C9485010C94E0030C9479020C94E00339
:100080000C94E0030C94E0030C94E0030C94E00364
:100090000C94E0030C94E0030C94E0030C94E00354
:1000A0000C94E0030C94E0030C94E0030C94E00344
:1000B0000C94E00301000428800011241FBECFEF40
:1000C000D8E0DEBFCDBFE4EBF0E040E017C0B59173
:1000D000A59135912591059107FD0CC095918591CC
:1000E000EF01F92FE82F05900D92A217B307D9F76A
:1000F000FE0104C01D92A217B307E1F7E93BF40724
:0E01000031F70E94DA030C948500F894FFCFCB
:10010E0025303278000D0A0073797320736C6565A3
:10011E007000257320256C64002573202573006DF7
:10012E0061632073657420646576657569006D6121
:10013E00632073657420617070657569006D61630D
:10014E0020736574206170706B6579006D6163203A
:10015E0073657420616472206F6666006D61632042
:10016E0073657420616472206F6E006D616320741C
:0F017E007820636E6600257320256420257300AA
:10018D00524E32343833006D61632072657365747D
:08019D0020383638006F6B00BA
:0501A5004641494C0039
:1001AA001F93CF93DF93CDB7DEB728970FB6F89496
:1001BA00DEBF0FBECDBF10E0123069F130F411235B
:1001CA0059F0113009F444C0F7CF1B3009F451C07B
:1001DA001D3009F450C0F0CF0E94D2032FE38DE006
:1001EA0093E0215080409040E1F700C000000E9457
:1001FA00D6034DE050E062E070E0CE0101960E9425
:10020A00BD032DE831E040E061E0CE0101960E9495
:10021A00C30311E0D1CF44E951E060E08CE292E0FF
:10022A000E9419038CE292E00E949B034DE050E089
:10023A006BE070E0CE0101960E94BD0322EA31E034
:10024A0040E060E0CE0101960E94C30311E0B4CF02
:10025A000E94B603892B09F4AFCF8CE292E00E9488
:10026A00DD036CE272E0CE0101960E942502182F8E
:10027A00A3CF80E001C082E028960FB6F894DEBFD3
:0C028A000FBECDBFDF91CF911F910895F2
:100296001F920F920FB60F9211242F938F939F9355
:1002A600EF93FF938091200481110EC0E091210409
:1002B600E43650F481E08E0F80932104F0E08091C3
:1002C600C600E050FF4F808380912104833080F088
:1002D60090E0FC01E150FF4F20812A3049F4FC01F7
:1002E600E250FF4F80818D3019F481E08093200425
:1002F600FF91EF919F918F912F910F900FBE0F90CD
:040306001F90189597
:10030A001F920F920FB60F9211242F938F939F93E0
:10031A00EF93FF938091240481110EC0E09125048C
:10032A00E43650F481E08E0F80932504F0E080914A
:10033A00CE00E454FC4F80838091250490E0FC01B8
:10034A00E554FC4F20812D3049F4FC01E654FC4F62
:10035A0080818A3019F481E080932404FF91EF911F
:10036A009F918F912F910F900FBE0F901F9018950C
:10037A00CF92DF92EF920F931F936B01E82E011534
:10038A00110519F101501109F6018491E7FC8081E8
:10039A00882399F0F901949147FD9081992369F096
:1003AA000115110551F0891308C08FEFC81AD80A30
:1003BA00E80A2F5F3F4F4F4FE5CF90E0F9012491B4
:1003CA0047FD2081821B910902C080E090E01F91C5
:0A03DA000F91EF90DF90CF9008958F
:1003E400CF93DF9300D000D01F92CDB7DEB70E9429
:1003F400E1020E94CE030E94D50081110BC08FE45C
:100404009BE49A8389831B8263E0CE0101960E9458
:10041400FF020FC025EA31E040E085E0F901DE018A
:100424001196742F0E94A90365E0CE0101960E94E3
:10043400FF022FEF8DE399E4215080409040E1F7D3
:0604440000C00000D8CF4B
:10044A00CF93DF93EC01FB019C81913091F018F07E
:10045A009230E9F01FC02D813E814F8180E80E94D1
:10046A00C002892B19F48881998116C08A819B81DF
:10047A0013C04D815E816F81CF010E949E02882345
:10048A0019F08881998108C08A819B8105C0888179
:0E049A00998102C08A819B81DF91CF910895E4
:1004A8001F920F920FB60F9211248F93EF93FF9321
:1004B800E091220480912304E81758F481E08E0F1C
:1004C80080932204F0E0EC59FE4F80818093C600AF
:1004D80004C01092220410922304FF91EF918F918F
:0A04E8000F900FBE0F901F901895A3
:1004F2001F920F920FB60F9211248F93EF93FF93D7
:10050200E091260480912704E81758F481E08E0FC9
:1005120080932604F0E0EC50FD4F80818093CE0062
:1005220004C01092260410922704FF91EF918F913C
:0A0532000F900FBE0F901F90189558
:10053C00CF92DF92EF920F931F93CF93DF93EC0147
:10054C006A01E62E862FBA010E9462038C01BE015D
:10055C0080E84E2D96010E94BD0121E0892B09F007
:10056C0020E0822FDF91CF911F910F91EF90DF90C0
:04057C00CF9008957F
:10058000CF92DF92EF926B01E82EF6018491E7FCA7
:100590008081F901549147FD508185130BC0882358
:1005A00041F08FEFC81AD80AE80A2F5F3F4F4F4F2C
:1005B000ECCF582F90E0851B9109EF90DF90CF9002
:0205C00008959C
:1005C200E1ECF0E0808180618083808188608083BB
:1005D200808180688083808180648083E0ECF0E0A9
:1005E20080818260808386E08093C20080E190E017
:0C05F2009093C5008093C4007894089595
:1005FE00DC0190E00BC0292F30E0FD01E20FF31F6C
:10060E004081F901EC59FE4F40839F5F961798F396
:10061E006093230481E0809322048091640180938F
:04062E00C600089565
:10063200CF93DF93EC010E948C03FE010190002016
:10064200E9F7CF0123E030E043E151E060E00197B8
:100652000E943203BE0180E80E946203DF91CF91C3
:020662000895F9
:10066400CF92DF92EF92DC016A01E62E280F391F48
:10067400A217B30751F0F6014491E7FC40814D9372
:100684004FEFC41AD40AE40AF3CFEF90DF90CF906F
:020694000895C7
:10069600BC0190E009C0FB01E90FF11DDA01A05091
:1006A600BF4F2C9120839F5F492F50E0209121045A
:0E06B60030E022503109421753076CF30895CB
:1006C400CF92DF92EF926B01E82EA82FCB01FC01B1
:1006D4002491A7FD2081222319F00196A11DF7CFB3
:0C06E4008C199D09EF90DF90CF900895D5
:1006F0000F931F93CF938C010E944B03C091210451
:10070000C250F801EC0FF11D10820E94C9038C2F1A
:08071000CF911F910F91089594
:100718009A01462FDC01F901549147FD50815D9300
:0E072800552321F02F5F3F4F4F4FF5CF08951F
:10073600CF93DF93EC01BC0180E80E946203BC0109
:0C074600CE010E94FF02DF91CF910895C8
:10075200992777FD05C005900D920197E1F708955D
:0A07620001900D920197E1F7089550
:0E076C009091200481E0911101C080E0089579
:0C077A00FC017183608353834283089567
:0C078600FC0164832583368347830895BB
:0A0792001092200410922104089533
:08079C0087B1846087B908955C
:0807A40088B18B7F88B908952C
:0807AC0088B1846088B908954A
:0607B4000E94F201FFCFDC
:0607BA000E94780308957F
:0407C0000C94000095
:00000001FF
