:100000000C945D000C9458020C9458020C94580205
:100010000C9458020C9458020C9458020C945802F8
:100020000C9458020C9458020C9458020C945802E8
:100030000C9458020C9458020C9458020C945802D8
:100040000C9458020C9458020C94D6000C9458024C
:100050000C9470010C9458020C9458020C945802A1
:100060000C9458020C9458020C9458020C945802A8
:100070000C9410010C9458020C9495010C945802A5
:100080000C9458020C9458020C9458020C94580288
:100090000C9458020C9458020C9458020C94580278
:1000A0000C9458020C9458020C9458020C94580268
:1000B0000C94580201000360800011241FBECFEF92
:1000C000D8E0DEBFCDBFE4EBF0E040E017C0B59173
:1000D000A59135912591059107FD0CC095918591CC
:1000E000EF01F92FE82F05900D92A217B307D9F76A
:1000F000FE0104C01D92A217B307E1F7E93BF40724
:0E01000031F70E9455020C948500F894FFCF51
:10010E00CF93DF9300D01F92CDB7DEB719821A823C
:10011E001B820E941D0260E081E60E944801813030
:10012E0021F060E00E94080234C081ED0E94F201CD
:10013E00813021F061E00E9408022BC080E00E9415
:10014E00F201813021F062E00E94080222C00E947A
:10015E004D028FE097E20197F1F700C0000061E0D9
:10016E0081E60E944801813021F063E00E9408027E
:10017E0010C00E94390289830E9439028A830E942C
:10018E0043028B830E944D0263E0CE0101960E94D2
:0E019E00D8010F900F900F90DF91CF91089530
:1001AC001F920F920FB60F9211242F938F939F9340
:1001BC00EF93FF938091580381110EC0E091590386
:1001CC00E43650F481E08E0F80935903F0E0809177
:1001DC00C600E050FF4F808380915903833080F03C
:1001EC0090E0FC01E150FF4F20812A3049F4FC01E2
:1001FC00E250FF4F80818D3019F481E080935803D9
:10020C00FF91EF919F918F912F910F900FBE0F90B7
:04021C001F90189582
:100220001F920F920FB60F9211242F938F939F93CB
:10023000EF93FF9380915C0381110EC0E0915D0309
:10024000E43650F481E08E0F80935D03F0E08091FE
:10025000CE00EC50FD4F808380915D0390E0FC0167
:10026000ED50FD4F20812D3049F4FC01EE50FD4F43
:1002700080818A3019F481E080935C03FF91EF91D3
:100280009F918F912F910F900FBE0F901F901895F7
:1002900090E0880F991F862B94EA9093BC00909170
:1002A000BC009923E4F79091B900987F983091F4BD
:1002B0008093BB0084E88093BC008091BC008823BD
:1002C000E4F78091B900887F883131F0803431F4CF
:1002D00081E0089580E0089581E0089582E0089526
:1002E0001F920F920FB60F9211248F93EF93FF93EB
:1002F000E0915A0380915B03E81758F481E08E0F78
:1003000080935A03F0E0EC59FE4F80818093C60041
:1003100004C010925A0310925B03FF91EF918F91EA
:0A0320000F900FBE0F901F9018956C
:10032A001F920F920FB60F9211248F93EF93FF93A0
:10033A00E0915E0380915F03E81758F481E08E0F25
:10034A0080935E03F0E0E45DFD4F80818093CE00F0
:10035A0004C010925E0310925F03FF91EF918F9198
:0A036A000F900FBE0F901F90189522
:10037400E1ECF0E08081806180838081886080830B
:10038400808180688083808180648083E0ECF0E0F9
:1003940080818260808386E08093C20080E190E067
:0C03A4009093C5008093C40078940895E5
:1003B000DC0190E00BC0292F30E0FD01E20FF31FBC
:1003C0004081F901EC59FE4F40839F5F961798F3E7
:1003D00060935B0381E080935A0380916401809372
:0403E000C6000895B6
:1003E4008093BB0084E88093BC008091BC00882388
:1003F400E4F78091B900887F883221F0803321F4BA
:0C04040082E0089581E0089583E00895EF
:10041000CF93DF9300D01F92CDB7DEB789836A8375
:100420008FEF8B8363E0CE0101960E94D8010F907D
:0A0430000F900F90DF91CF91089517
:10043A0080E28093B800E9EBF0E080818C7F8083D2
:0C044A00ECEBF0E080818460808308957A
:100456000E94BA010E9487002FEF8DE399E4215094
:0C04660080409040E1F700C00000F4CF9F
:1004720084EC8093BC008091BC008823E4F78091D7
:04048200BB0008951E
:1004860084E88093BC008091BC008823E4F78091C7
:04049600BB0008950A
:10049A0084E98093BC008091BC0084FDFCCF089560
:0604AA000E942B02FFCFAF
:0404B0000C940000A8
:00000001FF
