:100000000C9466000C942D080C942D080C942D086B
:100010000C942D080C942D080C942D080C942D088C
:100020000C942D080C942D080C942D080C942D087C
:100030000C942D080C942D080C942D080C942D086C
:100040000C942D080C942D080C940E050C942D087E
:100050000C940D060C942D080C942D080C942D086E
:100060000C942D080C942D080C942D080C942D083C
:100070000C9448050C942D080C9432060C942D0811
:100080000C942D080C942D080C942D080C942D081C
:100090000C942D080C942D080C942D080C942D080C
:1000A0000C942D080C942D080C942D080C942D08FC
:1000B0000C942D082203550343037103710360035D
:1000C0005E0373035C0301000428800011241FBE3B
:1000D000CFEFD8E0DEBFCDBFE6ECF0E040E017C0E8
:1000E000B591A59135912591059107FD0CC095918C
:1000F0008591EF01F92FE82F05900D92A217B30714
:10010000D9F7FE0104C01D92A217B307E1F7EB3C3B
:10011000F40731F70E9427080C948E00F894FFCF63
:1001200025303278000D0A0073797320736C656591
:100130007000257320256C64002573202573006DE5
:1001400061632073657420646576657569006D610F
:10015000632073657420617070657569006D6163FB
:1001600020736574206170706B6579006F6666003E
:100170006D61632073657420616472006F6E006D41
:10018000616320747820636E6600257320257520D6
:03019000257300D4
:100193006E6F5F667265655F6368006D61635F655F
:1001A3007272006D61635F7278006F6B006D6163E3
:0701B3005F74785F6F6B00C1
:0901BA00257320004641494C0068
:1001C4002F923F924F926F927F928F929F92AF9213
:1001D400BF92CF92DF92EF92FF920F931F93CF9330
:1001E400DF93CDB7DEB762970FB6F894DEBF0FBECC
:1001F400CDBF6C013A01862E7901FC01108617826D
:10020400848181FFE7C19E012F5F3F4F3D872C878B
:10021400C901A0E8888B998BAA8B9FE3992EF301DF
:10022400849187FC8081882309F4D0C1482D9301EF
:100234002F5F3F4F4F4F853219F03901842E0AC08A
:10024400F901849147FD808192E0690E711C811C43
:10025400853229F4B60190E00E94D204E0CFB12C9B
:1002640000E010E01032A0F48B3269F030F48032F8
:1002740059F0833269F410612CC08D3239F0803327
:1002840039F4116026C01260146023C0186021C0C4
:1002940017FD29C090ED980F9A3078F416FF06C028
:1002A400AAE0BA9E900D1124B92E13C0EAE00E9F65
:1002B400900D1124092F10620CC08E3221F416FD0A
:1002C40085C1106406C08C3611F4106802C08836EB
:1002D40051F4F301849187FC8081FFEF6F1A7F0A48
:1002E4008F0A8111BFCF982F9F7D9554933028F4A6
:1002F40024E0E20EF11C99820FC0833631F083377B
:1003040091F0833509F063C027C0F70180818983A8
:1003140097012E5F3F4F7901288839884A88AA249B
:10032400A394B12C17C0A7014D5F5F4F5F874E8721
:10033400F70120803180428016FF03C04B2D50E02E
:1003440002C04FEF5FEF842DB1010E941C075C01D6
:10035400EE84FF841F7718C097012D5F3F4F3F87BE
:100364002E87F70120803180428016FF03C04B2D79
:1003740050E002C04FEF5FEF842DB1010E941C07D3
:100384005C011068EE84FF8413FD1DC0802F90E093
:10039400A816B906C0F4B60180E290E00E94D20427
:1003A4000150F4CFF101849147FC8081FFEF2F1AB3
:1003B4003F0A4F0AB60190E00E94D2040111015095
:1003C40021E0A21AB108A114B10461F7F5C0843682
:1003D40011F0893671F5F70117FF08C0608171814A
:1003E4008281938197012C5F3F4F09C060817181A5
:1003F400072E000C880B990B97012E5F3F4F790154
:100404001F76312E97FF0AC090958095709561955F
:100414007F4F8F4F9F4F312F3068332E2AE030E0CB
:10042400AE014F5F5F4F0E948203482E4C85441AF1
:100434004AC0853729F41F7EA12E2AE030E025C06A
:10044400512F597FA52E8F36C1F018F4883579F0D5
:10045400BDC0803719F0883721F0B8C0852F80617E
:10046400A82EA4FE0DC09A2D9460A92E09C014FFD5
:100474000AC0A52FA660AA2E06C028E030E005C059
:1004840020E130E002C020E132E0F701A7FE08C01D
:100494006081718182819381A7014C5F5F4F07C0A6
:1004A4006081718180E090E0A7014E5F5F4F7A0127
:1004B400AE014F5F5F4F0E948203482E5C85451A50
:1004C4008A2D8F77382E36FE0DC0932D9E7FA92E50
:1004D4004B1458F434FE0BC032FC09C0A32DAE7E7D
:1004E400AA2E05C0142DA32C03C0142D01C01B2D4E
:1004F400A4FE0EC0FE01E40DF11D8081803321F4C1
:10050400EA2DE97EAE2E08C0A2FE05C01E5F04C01F
:100514008A2D867809F01F5FA3FC11C0A0FE06C0D7
:10052400101788F4040DB02EB11A0EC0101760F421
:10053400B60180E290E00E94D2041F5FF7CF10174B
:1005440018F4011B02C0B42C00E0A4FE10C0B601D4
:1005540080E390E00E94D204A2FE17C0A1FC03C075
:1005640088E790E002C088E590E0B6010CC08A2DCF
:10057400867859F0A1FE02C08BE201C080E2A7FC9C
:100584008DE2B60190E00E94D2044B1438F4B60117
:1005940080E390E00E94D204BA94F7CF4A94E1E059
:1005A400F0E0EC0FFD1FE40DF11D8081B60190E039
:1005B4000E94D2044110F2CF002309F430CEB601D8
:1005C40080E290E00E94D2040150F6CFF6018781C8
:1005D400908502C08FEF9FEF62960FB6F894DEBF4E
:1005E4000FBECDBFDF91CF911F910F91FF90EF9080
:1005F400DF90CF90BF90AF909F908F907F906F903F
:080604004F903F902F900895E4
:10060C00DF92EF92FF920F931F93CF93DF93CDB7AF
:10061C00DEB728970FB6F894DEBF0FBECDBFD82E2D
:10062C007B01042F10E0E12FF0E0E930F105D8F761
:10063C00E65AFF4F0C941808202FA7016D2D8CE261
:10064C0092E00E943A048CE292E00E94D6078CE27F
:10065C0092E00E94E40741E050E062E070E0CE01DD
:10066C0001960E940C082DEA31E040E060E0CE01DA
:10067C0001960E94120815E0D6CF41E050E064E0EC
:10068C0070E0CE0101960E940C0820EB31E040E0B6
:10069C0060E0CE0101960E94120815E0C4CF6CE216
:1006AC0072E080E80E94E405182FBDCF81E016C0EF
:1006BC0082E014C00E94FF07882309F4B4CF8CE2B7
:1006CC0092E00E942A086CE272E0CE0101960E9430
:1006DC00B505182FA8CF80E001C083E028960FB68F
:1006EC00F894DEBF0FBECDBFDF91CF911F910F915C
:0806FC00FF90EF90DF900895DC
:10070400FA01AA27283051F1203181F1E8946F933E
:100714006E7F6E5F7F4F8F4F9F4FAF4FB1E03ED0E4
:10072400B4E03CD0670F781F891F9A1FA11D680F82
:10073400791F8A1F911DA11D6A0F711D811D911DB5
:10074400A11D20D009F468943F912AE0269F11242A
:100754003019305D3193DEF6CF010895462F47708E
:10076400405D4193B3E00FD0C9F7F6CF462F4F70E9
:10077400405D4A3318F0495D31FD4052419302D047
:10078400A9F7EACFB4E0A6959795879577956795ED
:10079400BA95C9F700976105710508959B01AC01ED
:1007A4000A2E06945795479537952795BA95C9F714
:0C07B400620F731F841F951FA01D089585
:1007C000CF93DF93CDB7DEB728970FB6F894DEBF8F
:1007D0000FBECDBF8AEA89838BEB8A838FEF8B8331
:1007E00063E0CE0101960E94060881110BC08FE4E0
:1007F0009BE49D838C831E8263E0CE0104960E945D
:1008000052072FC0833071F484E592E59D838C8379
:1008100089E590E09F838E8364E0CE0104960E9478
:1008200052071FC0813071F485E492E59D838C836B
:1008300082E590E09F838E8364E0CE0104960E945F
:1008400052070FC02EEB31E040E085E0F901DE01F8
:100850001496742F0E94F20765E0CE0104960E9460
:10086000520728960FB6F894DEBF0FBECDBFDF91BA
:04087000CF91089587
:10087400DF92EF92FF920F931F93CF93DF93CDB745
:10088400DEB7C556D1090FB6F894DEBF0FBECDBF93
:100894008C019FEF960F9F3D68F59FEF920F923367
:1008A40060F5D62E30E060E8CE0101967C010E940E
:1008B4009004C701A0E8AF939F93EF921F92DF9239
:1008C4008FE791E0A0E0AF939F938F938AE891E044
:1008D400A0E0AF939F938F931F930F930E947C0686
:1008E400B80180E80E949C070FB6F894DEBF0FBEE3
:1008F400CDBF05C08FEF9FEF02C08FEF9FEFCB59A5
:10090400DF4F0FB6F894DEBF0FBECDBFDF91CF919E
:0C0914001F910F91FF90EF90DF9008956D
:100920006F927F928F92EF92FF920F931F93CF93CC
:10093000DF937C013A01862E8901C0E0D0E025C01A
:10094000A82DC3018C0F9D1FA11DD7FDAA95FC01E9
:100950002491A7FD2081CE01880F991F1F922F930C
:1009600020E231E040E04F933F932F938E0D9F1D87
:100970009F938F930E947C0621968DB79EB7079612
:100980000FB6F8949EBF0FBE8DBFC017D107C4F23B
:10099000DF91CF911F910F91FF90EF908F907F90FB
:0409A0006F900895B7
:1009A4000F931F93CF93DF93FB01248121FD03C099
:1009B4008FEF9FEF2CC022FF16C047815085258101
:1009C40036814217530744F4A081B1819D012F5F02
:1009D4003F4F318320838C93278130852F5F3F4F96
:1009E4003087278314C08B01EC01FB010184F2855D
:1009F400E02D0995892BE1F6D80117968D919C91EC
:100A04001897019618969C938E931797CE01DF91B1
:080A1400CF911F910F9108958D
:100A1C001F920F920FB60F9211242F938F939F93C7
:100A2C00EF93FF938091200481110EC0E09121047B
:100A3C00E43650F481E08E0F80932104F0E0809135
:100A4C00C600E050FF4F808380912104833080F0FA
:100A5C0090E0FC01E150FF4F20812A3049F4FC0169
:100A6C00E250FF4F80818D3019F481E08093200497
:100A7C00FF91EF919F918F912F910F900FBE0F903F
:040A8C001F9018950A
:100A90001F920F920FB60F9211242F938F939F9353
:100AA000EF93FF938091240481110EC0E0912504FF
:100AB000E43650F481E08E0F80932504F0E08091BD
:100AC000CE00E454FC4F80838091250490E0FC012B
:100AD000E554FC4F20812D3049F4FC01E654FC4FD5
:100AE00080818A3019F481E080932404FF91EF9192
:100AF0009F918F912F910F900FBE0F901F9018957F
:100B0000CF92DF92EF920F931F936B01E82E0115A6
:100B1000110519F101501109F6018491E7FC80815A
:100B2000882399F0F901949147FD9081992369F008
:100B30000115110551F0891308C08FEFC81AD80AA2
:100B4000E80A2F5F3F4F4F4FE5CF90E0F901249126
:100B500047FD2081821B910902C080E090E01F9137
:0A0B60000F91EF90DF90CF90089501
:100B6A00CF93DF93EC01FB019C81913091F018F057
:100B7A009230E9F01FC02D813E814F8180E80E94AA
:100B8A00C106892B19F48881998116C08A819B81B3
:100B9A0013C04D815E816F81CF010E949F06882319
:100BAA0019F08881998108C08A819B8105C0888152
:0E0BBA00998102C08A819B81DF91CF910895BD
:100BC800CF92DF92EF926B01E82E23E931E040E00B
:100BD8000E94C106892BA1F02EE931E040E08E2D5C
:100BE800B6010E94C106892B69F026EA31E040E08F
:100BF8008E2DB6010E945706882331F083E005C088
:100C080087E003C088E001C086E0EF90DF90CF90D6
:020C180008953D
:100C1A001F920F920FB60F9211248F93EF93FF93A7
:100C2A00E091220480912304E81758F481E08E0FA2
:100C3A0080932204F0E0EC59FE4F80818093C60035
:100C4A0004C01092220410922304FF91EF918F9115
:0A0C5A000F900FBE0F901F90189529
:100C64001F920F920FB60F9211248F93EF93FF935D
:100C7400E091260480912704E81758F481E08E0F50
:100C840080932604F0E0EC50FD4F80818093CE00E9
:100C940004C01092260410922704FF91EF918F91C3
:0A0CA4000F900FBE0F901F901895DF
:100CAE006F927F928F92CF92DF92EF920F931F935C
:100CBE003B01882E6901E42E842FB9010E949C0706
:100CCE008C014E2D9601882DB3010E94800521E0E6
:100CDE00892B09F020E0822F1F910F91EF90DF906A
:0A0CEE00CF908F907F906F900895D3
:100CF800AFE0B0E0E2E8F6E00C940E070E891F8939
:100D080086E08D831A8309838FEF9FE79F838E8305
:100D18009E01255E3F4F488D598D6A8DCE01019603
:100D28000E94E200E885F985E00FF11F10822F96F6
:060D3800E4E00C94450705
:100D3E00CF92DF92EF920F931F93CF93DF93EC013D
:100D4E006A01E62E862FBA010E949C078C01BE0115
:100D5E0080E84E2D96010E94800521E0892B09F036
:100D6E0020E0822FDF91CF911F910F91EF90DF90B6
:040D7E00CF90089575
:100D8200CF92DF92EF926B01E82EF6018491E7FC9D
:100D92008081F901549147FD508185130BC088234E
:100DA20041F08FEFC81AD80AE80A2F5F3F4F4F4F22
:100DB200ECCF582F90E0851B9109EF90DF90CF90F8
:020DC200089592
:100DC400E1ECF0E0808180618083808188608083B1
:100DD400808180688083808180648083E0ECF0E09F
:100DE40080818260808386E08093C20080E190E00D
:0C0DF4009093C5008093C400789408958B
:100E00002F923F924F925F926F927F928F929F921A
:100E1000AF92BF92CF92DF92EF92FF920F931F9308
:100E2000CF93DF93CDB7DEB7CA1BDB0B0FB6F894B9
:080E3000DEBF0FBECDBF099427
:100E3800CF92DF92EF926B01E82EA82FCB014115DC
:100E4800510531F48C199D09EF90DF90CF900895EA
:100E5800FC012491A7FD20812223A1F30196A11D65
:060E680041505109ECCFDE
:100E6E002A88398848885F846E847D848C849B842C
:100E7E00AA84B984C884DF80EE80FD800C811B813A
:100E8E00AA81B981CE0FD11D0FB6F894DEBF0FBE69
:060E9E00CDBFED01089537
:100EA400DC0190E00BC0292F30E0FD01E20FF31FBD
:100EB4004081F901EC59FE4F40839F5F961798F3E8
:100EC4006093230481E080932204809164018093E1
:040ED400C6000895B7
:100ED800CF92DF92EF92DC016A01E62E280F391FCC
:100EE800A217B30751F0F6014491E7FC40814D93F6
:100EF8004FEFC41AD40AE40AF3CFEF90DF90CF90F3
:020F080008954A
:100F0A00BC0190E009C0FB01E90FF11DDA01A05014
:100F1A00BF4F2C9120839F5F492F50E020912104DD
:0E0F2A0030E022503109421753076CF308954E
:100F3800CF92DF92EF926B01E82EA82FCB01FC0134
:100F48002491A7FD2081222319F00196A11DF7CF36
:0C0F58008C199D09EF90DF90CF90089558
:100F64000F931F93CF938C010E948507C091210496
:100F7400C250F801EC0FF11D10820E941E088C2F44
:080F8400CF911F910F91089518
:100F8C000E94E2060E9423080E94E0032FEF8DE3EB
:100F9C0099E4215080409040E1F700C00000F4CF6C
:100FAC00FC0101900020E9F7CF0123E030E045E29D
:0C0FBC0051E060E001970E946C0708956E
:100FC800CF93DF93EC01BC0180E80E949C07682F57
:0C0FD800CE010E945207DF91CF910895D6
:100FE400992777FD05C005900D920197E1F70895C3
:0A0FF40001900D920197E1F70895B6
:0E0FFE009091200481E0911101C080E00895DF
:0C100C00462FBC0184E60E9406030895F4
:0C101800FC0171836083538342830895C0
:0C102400FC016483258336834783089514
:0C103000EE0FFF1F0590F491E02D0994D5
:0A103C001092200410922104089580
:0810460087B1846087B90895A9
:06104E000E94C607FFCF5F
:061054000E94B20708959E
:04105A000C940000F2
:00000001FF
